:040800000CEF04F005
:10080800FACF15F1FBCF16F1E9CF17F133ED0AF066
:1008180000EE00F010EE13F014EC04F047EF08F0CF
:0E082800EE6AE550E150FCE1E250FAE1120008
:10100000004F464620202020202020202020202085
:10101000202020000046554C4C20504F5745522070
:101020002020202020202000004D49442020504F27
:10103000574552202020202020202000004C4F57D0
:101040002020504F574552202020202020202000D3
:10105000005645525920464153542020202020203C
:101060002020200000464153542020202020202012
:10107000202020202020200000534C4F57202020EB
:101080002020202020202020202020000000E0EC34
:1010900009F082720101016F000E01010101006F70
:1010A000010101510101016F000E01010101066FF3
:1010B000010101510101026F000E01010101056FE3
:1010C00001010251D1EC0AF0F2EC0BF003C10BF07C
:1010D00004C10CF00101016F000E01010101056F57
:1010E000010101510BC003F10CC004F1FDEC08F04B
:1010F00081A001D001D03DD00101016F000E01019E
:101100000101066F010101510101026F000E010191
:101110000101056F01010251D1EC0AF00101016FDB
:10112000000E01010101006F01010151130E0101C7
:101130000101006501D001D001D01BD0010E0101D9
:1011400001010025F66EF76A100EF722F86A000E0C
:10115000F82208000101F5CF0DF1B9EC0BF0010107
:101160000101002B130E01010101006501D001D026
:10117000E5D781A201D001D03DD00101016F000E61
:1011800001010101066F010101510101026F000E11
:1011900001010101056F01010251D1EC0AF00101C9
:1011A000016F000E01010101006F01010151130ED9
:1011B00001010101006501D001D001D01BD0150E45
:1011C000010101010025F66EF76A100EF722F86A98
:1011D000000EF82208000101F5CF0DF1B9EC0BF07B
:1011E00001010101002B130E01010101006501D075
:1011F00001D0E5D74ED70CEF04F001010C6F000EC3
:1012000001010101066F01010C51040E01010101F0
:10121000066501D001D001D036D00101070E0101D1
:1012200001010625E96EEA6A0101010EEA220A0EB1
:10123000010101010F6F000E0101106F03C10DF1DB
:1012400004C10EF185EC0AF0010101010D51EF6EB0
:101250000A0E010101010F6F000E0101106F03C1A1
:101260000DF104C10EF184EC09F00DC103F10EC1C2
:1012700004F101010101062B040E010101010665C3
:1012800001D001D0CAD701010C6F050E0101010187
:10129000066F01010C5101010101066701D001D067
:1012A00001D031D0010101010551010101010663A5
:1012B00001D001D00AD001010C6F2E0E01010101F5
:1012C0000D6F01010C51B9EC0BF006C10CF1FF0ED2
:1012D00001010C270101070E01010C25E96EEA6AE4
:1012E0000101010EEA22EF50300F010101010D6FE3
:1012F000B9EC0BF0010101010607010101010667CC
:1013000001D001D0CFD71200000E01010101126FF0
:10131000000E0101136F0101010110510F11D8B42A
:1013200001D001D047D00101146F010E010101016C
:10133000116F0101145109D00101D89001010F373B
:101340000101103701010101112B0101010110AF51
:1013500001D001D0F1D70101D8900101123701016C
:101360001337010101010F51010101010D5D01015F
:1013700001011051010101010E59D8A001D001D085
:101380000FD0010101010F51010101010D5F0101A8
:1013900001011051010101010E5B010101011281E6
:1013A0000101D8900101103301010F330101010146
:1013B000112FD1D712C10DF113C10EF100D01200BF
:1013C00013EC0BF0D59A0101036F870ED56E010166
:1013D0000351D58EF28AF184F28C0101036F4D0E18
:1013E000CA6E010103510101036FF90ECB6E0101B9
:1013F00003519D82F28CCA849F82F28E8086010105
:10140000036F000E01010101066F0101035101018B
:10141000046F010E01010101056F01010451D1ECBE
:101420000AF00101036F000E066E01010351130E55
:10143000066401D001D001D015D0790E0624F66ED5
:10144000F76A100EF722F86A000EF8220800010170
:10145000F5CF0DF1B9EC0BF0062A130E066401D09E
:1014600001D0EBD712000600EACF18F1E1CF19F155
:10147000E2CF1AF1D9CF1BF1DACF1CF1F3CF1DF176
:10148000F4CF1EF1F6CF1FF1F7CF20F1F8CF21F105
:101490009EA201D001D00BD00A500910D8B401D0BF
:1014A00001D003D00906D8A00A06827E9E92F2A43B
:1014B00001D001D00FD0BE0ED66EF00ED76E0E50FA
:1014C0000D10D8B401D001D003D00D06D8A00E065F
:1014D000827CF29421C1F8FF20C1F7FF1FC1F6FF03
:1014E0001EC1F4FF1DC1F3FF1CC1DAFF1BC1D9FFF0
:1014F0001AC1E2FF19C1E1FF18C1EAFF17C1E9FFF4
:1015000016C1FBFF15C1FAFF1100010101011051C5
:101510000F11D8B401D001D03ED00101126F010EDD
:1015200001010101116F0101125109D00101D8908F
:1015300001010F370101103701010101112B0101D8
:10154000010110AF01D001D0F1D7010101010F510C
:10155000010101010D5D01010101105101010101B4
:101560000E59D8A001D001D00CD0010101010F51BA
:10157000010101010D5F0101010110510101010192
:101580000E5B0101D8900101103301010F330101FD
:101590000101112FDAD70DC10DF10EC10EF100D0EE
:1015A000120001010101056701D001D009D001013C
:1015B00001010651800F01010101076F92EC0BF050
:1015C000010101010505D8A401D001D009D0010114
:1015D00001010651C00F01010101076F92EC0BF0F0
:1015E000010101010551020AD8A401D001D009D09E
:1015F000010101010651940F01010101076F92ECF5
:101600000BF0010101010551030AD8A401D001D05A
:1016100009D0010101010651D40F01010101076F39
:1016200092EC0BF01200010E956E83920101056F92
:10163000330E01010101076F0101055192EC0BF01E
:101640000101056F320E01010101076F0101055112
:1016500092EC0BF00101056F280E01010101076FEB
:101660000101055192EC0BF00101056F0E0E010115
:101670000101076F0101055192EC0BF00101056FAB
:10168000010E01010101076F0101055192EC0BF000
:101690000101056F060E01010101076F01010551EE
:1016A00092EC0BF01200000E010101010B6F000E15
:1016B00001010C6F26D0000E010101010D6F000E1B
:1016C00001010E6F690E010101010D5D020E0101A4
:1016D0000E59D8A001D001D001D00FD001010101D5
:1016E0000D4B0E2B690E010101010D5D020E010172
:1016F0000E59D8A001D001D0F1D7010101010B4B47
:101700000C2B010101010951010101010B5D0101D6
:1017100001010A51010101010C59D8A001D001D0E9
:10172000CAD71200839407C108F1F00E010108170F
:1017300083500F0B01010811836E00EC0CF007C100
:1017400008F10101083BF00E0817F00E010108171F
:1017500083500F0B01010811836E00EC0CF00A0E90
:1017600001010101096F000E01010A6F53EC0BF03A
:10177000120083840DC10EF1F00E01010E1783508B
:101780000F0B01010E11836E00EC0CF00DC10EF178
:1017900001010E3BF00E0E17F00E01010E178350E3
:1017A0000F0B01010E11836E00EC0CF01200010111
:1017B000106F000E010101010F6F01011051130E96
:1017C000010101010F6501D001D001D00AD0010152
:1017D00001010F2B130E010101010F6501D001D092
:1017E000F6D71200010EC26EC28200D0C2B201D082
:1017F00001D0FCD7C3CF03F1C4CF04F100D0120055
:101800008396D7EC0BF08386D7EC0BF08396D7EC5E
:041810000BF01200C7
:00000001FF
