:040800000CEF04F005
:10080800FACF0DF1FBCF0EF1E9CF0FF16AED09F048
:1008180000EE00F010EE11F014EC04F047EF08F0D1
:0E082800EE6AE550E150FCE1E250FAE1120008
:10100000004F464620202020202020202020202085
:10101000202020000046554C4C20504F5745522070
:101020002020202020202000004D49442020504F27
:10103000574552202020202020202000004C4F57D0
:101040002020504F574552202020202020202000D3
:10105000005645525920464153542020202020203C
:101060002020200000464153542020202020202012
:10107000202020202020200000534C4F57202020EB
:101080002020202020202020202020000000FEEC16
:1010900009F0D59A0101016F870ED56E010101514A
:1010A000D58EF28AF184F28C0101016F4D0ECA6E69
:1010B000010101510101016FF90ECB6E01010151D6
:1010C0009D82F28CCA849F82F28E80860101016F1C
:1010D000010E01010101046F010101510101026FC3
:1010E000010E01010101036F01010251BCEC09F085
:1010F0000101016F000E046E01010151130E046421
:1011000001D001D001D015D0790E0424F66EF76A13
:10111000100EF722F86A000EF82208000101F5CF40
:1011200003F1A4EC0AF0042A130E046401D001D0E8
:10113000EBD70101016F000E01010101046F0101F4
:1011400001510101026F000E01010101036F010154
:101150000251BCEC09F00101016F000E046E0101A7
:101160000151130E046401D001D001D015D0150E29
:101170000424F66EF76A100EF722F86A000EF822C1
:1011800008000101F5CF03F1A4EC0AF0042A130EC4
:10119000046401D001D0EBD7827A81A001D001D0C4
:1011A00049D0000E0F6E000E106E000E0D6E000E78
:1011B0000E6E010E006E000E016E0101016F000E39
:1011C00001010101046F010101510101026F000ED3
:1011D00001010101036F01010251BCEC09F00101A1
:1011E000016F000E01010101006F01010151130E99
:1011F00001010101006501D001D001D01BD0010E19
:10120000010101010025F66EF76A100EF722F86A57
:10121000000EF82208000101F5CF03F1A4EC0AF05A
:1012200001010101002B130E01010101006501D034
:1012300001D0E5D781A201D001D049D0010E0F6EB7
:10124000000E106E010E0D6E000E0E6E000E006E82
:10125000000E016E0101016F000E01010101046F1A
:10126000010101510101026F000E01010101036F33
:1012700001010251BCEC09F00101016F000E0101F6
:101280000101006F01010151130E0101010100650F
:1012900001D001D001D01BD0150E010101010025A4
:1012A000F66EF76A100EF722F86A000EF8220800B0
:1012B0000101F5CF03F1A4EC0AF001010101002BBB
:1012C000130E01010101006501D001D0E5D764D7FB
:1012D0000CEF04F00600EACF10F1E1CF11F1E2CFFC
:1012E00012F1D9CF13F1DACF14F1F3CF15F1F4CF16
:1012F00016F1F6CF17F1F7CF18F1F8CF19F19EA23A
:1013000001D001D00BD00C500B10D8B401D001D0BB
:1013100003D00B06D8A00C06827E9E92F2A401D0C8
:1013200001D00FD0BE0ED66EF00ED76E0A50091047
:10133000D8B401D001D003D00906D8A00A06827C17
:10134000F29419C1F8FF18C1F7FF17C1F6FF16C1D3
:10135000F4FF15C1F3FF14C1DAFF13C1D9FF12C1A5
:10136000E2FF11C1E1FF10C1EAFF0FC1E9FF0EC1A9
:10137000FBFF0DC1FAFF110001010101036701D05C
:1013800001D009D0010101010451800F01010101C7
:10139000056F7DEC0AF0010101010305D8A401D01D
:1013A00001D009D0010101010451C00F0101010167
:1013B000056F7DEC0AF0010101010351020AD8A476
:1013C00001D001D009D0010101010451940F0101A4
:1013D0000101056F7DEC0AF0010101010351030ACF
:1013E000D8A401D001D009D0010101010451D40FCA
:1013F00001010101056F7DEC0AF01200010E956EEE
:1014000083920101036F330E01010101056F010198
:1014100003517DEC0AF00101036F320E010101015D
:10142000056F010103517DEC0AF00101036F280EE5
:1014300001010101056F010103517DEC0AF0010179
:10144000036F0E0E01010101056F010103517DECD7
:101450000AF00101036F010E01010101056F010195
:1014600003517DEC0AF00101036F060E0101010139
:10147000056F010103517DEC0AF01200000E01011D
:101480000101096F000E01010A6F26D0000E010153
:1014900001010B6F000E01010C6F690E01010101CA
:1014A0000B5D020E01010C59D8A001D001D001D072
:1014B0000FD0010101010B4B0C2B690E0101010141
:1014C0000B5D020E01010C59D8A001D001D0F1D75B
:1014D00001010101094B0A2B010101010751010121
:1014E0000101095D010101010851010101010A59D0
:1014F000D8A001D001D0CAD71200839405C106F14B
:10150000F00E0101061783500F0B01010611836EC7
:10151000DDEC0AF005C106F10101063BF00E0617ED
:10152000F00E0101061783500F0B01010611836EA7
:10153000DDEC0AF00A0E01010101076F000E010146
:10154000086F3EEC0AF01200838403C104F1F00E30
:101550000101041783500F0B01010411836EDDECB0
:101560000AF003C104F10101043BF00E0417F00E70
:101570000101041783500F0B01010411836EDDEC90
:101580000AF012000101086F000E01010101076F4E
:1015900001010851130E01010101076501D001D0BD
:1015A00001D00AD001010101072B130E0101010135
:1015B000076501D001D0F6D712008396C2EC0AF07D
:0E15C0008386C2EC0AF08396C2EC0AF0120099
:00000001FF
